{
  "contractName": "NariToken",
  "abi": [
    {
      "constant": true,
      "inputs": [],
      "name": "welcome",
      "outputs": [
        {
          "internalType": "string",
          "name": "",
          "type": "string"
        }
      ],
      "payable": false,
      "stateMutability": "view",
      "type": "function"
    },
    {
      "constant": true,
      "inputs": [
        {
          "internalType": "bytes3[2]",
          "name": "",
          "type": "bytes3[2]"
        }
      ],
      "name": "bar",
      "outputs": [],
      "payable": false,
      "stateMutability": "pure",
      "type": "function"
    },
    {
      "constant": true,
      "inputs": [
        {
          "internalType": "uint32",
          "name": "x",
          "type": "uint32"
        },
        {
          "internalType": "bool",
          "name": "y",
          "type": "bool"
        }
      ],
      "name": "baz",
      "outputs": [
        {
          "internalType": "bool",
          "name": "r",
          "type": "bool"
        }
      ],
      "payable": false,
      "stateMutability": "pure",
      "type": "function"
    },
    {
      "constant": true,
      "inputs": [
        {
          "internalType": "bytes",
          "name": "",
          "type": "bytes"
        },
        {
          "internalType": "bool",
          "name": "",
          "type": "bool"
        },
        {
          "internalType": "uint256[]",
          "name": "",
          "type": "uint256[]"
        }
      ],
      "name": "sam",
      "outputs": [],
      "payable": false,
      "stateMutability": "pure",
      "type": "function"
    }
  ],
  "bytecode": "0x60806040526040518060400160405280601281526020017f4449542049532047454c442057414152442100000000000000000000000000008152506000908051906020019061004f929190610062565b5034801561005c57600080fd5b50610107565b828054600181600116156101000203166002900490600052602060002090601f016020900481019282601f106100a357805160ff19168380011785556100d1565b828001600101855582156100d1579182015b828111156100d05782518255916020019190600101906100b5565b5b5090506100de91906100e2565b5090565b61010491905b808211156101005760008160009055506001016100e8565b5090565b90565b6103e3806101166000396000f3fe608060405234801561001057600080fd5b506004361061004c5760003560e01c8063a5643bf214610051578063b627cf3b146101ac578063cdcd77c01461022f578063fce353f614610287575b600080fd5b6101aa6004803603606081101561006757600080fd5b810190808035906020019064010000000081111561008457600080fd5b82018360208201111561009657600080fd5b803590602001918460018302840111640100000000831117156100b857600080fd5b91908080601f016020809104026020016040519081016040528093929190818152602001838380828437600081840152601f19601f8201169050808301925050505050505091929192908035151590602001909291908035906020019064010000000081111561012757600080fd5b82018360208201111561013957600080fd5b8035906020019184602083028401116401000000008311171561015b57600080fd5b919080806020026020016040519081016040528093929190818152602001838360200280828437600081840152601f19601f8201169050808301925050505050505091929192905050506102ec565b005b6101b46102f1565b6040518080602001828103825283818151815260200191508051906020019080838360005b838110156101f45780820151818401526020810190506101d9565b50505050905090810190601f1680156102215780820380516001836020036101000a031916815260200191505b509250505060405180910390f35b61026d6004803603604081101561024557600080fd5b81019080803563ffffffff16906020019092919080351515906020019092919050505061038f565b604051808215151515815260200191505060405180910390f35b6102ea6004803603604081101561029d57600080fd5b8101908080604001906002806020026040519081016040528092919082600260200280828437600081840152601f19601f82011690508083019250505050505091929192905050506103ab565b005b505050565b60008054600181600116156101000203166002900480601f0160208091040260200160405190810160405280929190818152602001828054600181600116156101000203166002900480156103875780601f1061035c57610100808354040283529160200191610387565b820191906000526020600020905b81548152906001019060200180831161036a57829003601f168201915b505050505081565b600060208363ffffffff1611806103a35750815b905092915050565b5056fea265627a7a723158207ed363a3f7f845f1d75ec4f960d5f4e93d666ae06f550b840236e9b27a66722364736f6c63430005100032",
  "source": "// SPDX-License-Identifier: MIT\npragma solidity >=0.4.22 <0.8.0;\n\ncontract NariToken {\n  string public welcome = \"DIT IS GELD WAARD!\";\n    function bar(bytes3[2] memory) public pure {}\n    function baz(uint32 x, bool y) public pure returns (bool r) { r = x > 32 || y; }\n    function sam(bytes memory, bool, uint[] memory) public pure {}\n}",
  "sourcePath": "/home/nari/private-git/NariTokens/contracts/NariToken.sol",
  "compiler": {
    "name": "solc",
    "version": "0.5.16+commit.9c3226ce.Emscripten.clang"
  },
  "schemaVersion": "3.2.4",
  "updatedAt": "2020-09-10T15:15:41.684Z",
  "networkType": "ethereum",
  "devdoc": {
    "methods": {}
  },
  "userdoc": {
    "methods": {}
  }
}